:0F096800CED2D4DA0D0A0045525230520D0A0099
:06099D00011C00011B001B
:10072800E4F5097592FFF591C294C295C296C297F5
:100738001209341209501208171208C4802C781CA8
:10074800E61460FA24F1601824DF60F22431702086
:10075800781C760112077EEF70E4781C763180DE13
:100768001209BE781EEFF6120006E4781CF680CE59
:06077800E4781CF680C8C5
:10093400B2C2120985B2C2120985B2C2120985B2C5
:0C094400C2120985B2C2120985B2C2229B
:100950007580FFE4F59075A0FF75B0FF75C0FFC20C
:08096000C3D289D2A8D2AF2254
:0A09920000007F057E49DEFEDFFC59
:01099C002238
:080910008F148E138D128C115F
:10091800E4F515F516F517F518781174FF1201812D
:0B092800EC4D4E4F600512099280EE6E
:0109330022A1
:0C0985007F117ED07D1BDDFEDEFCDFFA62
:010991002243
:0300030002085898
:10085800C0E0C0F0C083C082C0D075D000C000C066
:1008680001C002C003C004C005C006C00712046F5F
:10087800D007D006D005D004D003D002D001D000D4
:0B088800D0D0D082D083D0F0D0E0327E
:100006008F0AEF702E751B01D2A7D2A6C2A5D2B455
:10001600D2B3D2A3D2A4120985D2A7D2A6D2A5D290
:10002600B4D2B3D2A3D2A47BFF7A0979681208EBC3
:10003600C2C222E51B6401600302014CF51BD2C259
:10004600E50A12019F007F01008502008F040099D6
:100056000500A31600AD1700B71800C11900CB1A8A
:1000660000D71B00E31C00EF1D00FB1E01091F014A
:10007600172001272100000157C2A7D2A68022D24D
:10008600A7D2A6D2A5C2B4805CD2A7D2A6D2A5C258
:10009600B4805ED2A7D2A6D2A5C2B48060D2A7C2CF
:1000A600A6D2A5D2B48026D2A7D2A6D2A5C2B480A3
:1000B6005AD2A7D2A6D2A5C2B4805ED2A7D2A6D261
:1000C600A5C2B48064D2A7D2A6D2A5C2B4D2B38048
:1000D6002ED2A7D2A6D2A5D2B4C2B38030D2A7D28E
:1000E600A6D2A5D2B4C2B38032D2A7D2A6D2A5D206
:1000F600B4C2B38036D2A7D2A6D2A5D2B4C2B3D2E6
:10010600A3801AD2A7D2A6D2A5D2B4D2B3C2A38054
:100116001CD2A7D2A6D2A5D2B4D2B3C2A3D2A480EF
:100126000ED2A7D2A6D2A5D2B4D2B3D2A3C2A4125B
:100136000985120985D2A7D2A6D2A5D2B4D2B3D246
:10014600A3D2A4D2C2227BFF7A09796F1208EBD21E
:02015600C222C3
:10029300666569206D616F000000000000000000CA
:1002A30000626F2066616E672079696E20797565DB
:1002B30000007368692066656E207A686F6E670058
:1002C30000000077616E207368616E672068616F5C
:1002D30000000000776F206169206E690000000054
:1002E3000000000000776F207368692073686569F8
:1002F30000000000000064656E67206775616E672B
:10030300207869750000006461206B616920646571
:100313006E670000000000006775616E2064656E03
:100323006700000000000000006C69616E672079BF
:1003330069206469616E00000000616E20796920A4
:100343006469616E0000000000000063616920734E
:10035300652064656E670000000000006368656ED9
:10036300672073652064656E67000000006C76206B
:1003730073652064656E67000000000000006C6117
:100383006E2073652064656E6700000000000066E0
:10039300656E2073652064656E67000000000000D1
:1003A3007A692073652064656E67000000000000B1
:1003B300000001020405161718191A1B1C1D1E1F25
:0203C3002021F7
:10081700D2B57F057E007D007C00120910C2B57F2E
:10082700057E007D007C00120910D2B57F057E0091
:100837007D007C00120910C2A17F057E007D007C2F
:1008470000120910D2A17F057E007D007C000209FD
:010857001090
:10050E007F061209B37D357F171209A87F0A7E0078
:10051E007D007C001209107F061209B37D037F89CE
:10052E001209A87F057E007D007C001209107D4314
:10053E007FCF1209A87F057E007D007C0012091076
:10054E007D027FCB1209A87D0A7F111209A8E4FD56
:10055E007F1E1209A87D3F7F191209A87D487F1BB7
:10056E001209A87D1F7F1D1209A87F0A7E007D003B
:10057E007C001209107D047FCD1209A87F057E0034
:10058E007D007C00120910E4FD7FB91209A87D4F91
:0C059E007FCF1209A87DFF7F6F0209A823
:1006C90012050EE4FD7FBD1209A87D487F171209A6
:1006D900A87F0A7E007D007C001209107D807F3C86
:1006E9001209A87D077F3E1209A87DFF7F381209EC
:1006F900A87D077F3A1209A8E4FD7F401209A87D69
:10070900087F421209A8E4FD7F441209A87D087FE9
:0F071900461209A87F017E007D007C00020910B6
:10046F00E4F508C2A87F2B1209B3781DA607E4FD97
:10047F007F291209A8E4FD7F021209A8781DE63032
:10048F00E4377FB21209B3EF6421702D7FBF1209D9
:10049F00B3EF643570237FBA1209B38F087E00D390
:1004AF00EF9400748094804010D3EF940474809480
:1004BF00805006781C76108004781C7611E4FD7F3E
:1004CF002B1209A8E4FD7F1C1209A8E4FD7F291255
:1004DF0009A8E4FD7F021209A8E4FD7F2B1209A8E9
:1004EF00E4FD7FBA1209A8E4FD7FBC1209A87D01C3
:0E04FF007F081209A8E4FD7F081209A8D2A800
:01050D0022CB
:10077E00E4F50AF50BF50AC3E50A94057480948036
:10078E0050401209C37F327E007D007C001209109A
:10079E001203C5EF700280117F0A7E007D007C007F
:1007AE001209101205AAEF70101208177F327E0080
:1007BE007D007C001209108005750B018004050A6E
:0407CE0080B5AF0B38
:0107D2002204
:10089300E4F510F50FC3E50F940A74809480501E9D
:1008A3007FB21209B3EF64217005751001800F7FC9
:1008B3000A7E007D007C00120910050F80D7AF105F
:0108C3002212
:0309C3000206C960
:1005AA00C2A87D557F351209A87D097F1C1209A8AA
:1005BA007D207FBD1209A87D017F081209A87F014D
:1005CA007E007D007C00120910E4FD7F081209A854
:1005DA007F017E007D007C00120910120893EF70E3
:1005EA0002FF227D0B7F1C1209A87DFF7FB2120930
:1005FA00A87F017E007D007C001209107D067F37EE
:10060A001209A87F017E007D007C001209107D0678
:10061A007F371209A87F057E007D007C0012091031
:10062A007D107F291209A8E4FD7FBD1209A8D2A86E
:03063A007F01221B
:1003C500750D01E4F50CC3E50C941174809480401F
:1003D5000302046C120893EF7005F50D02046CE539
:1003E5000C9003B493FD7FC11209A8E4FD7FC312ED
:1003F50009A87D047F081209A87F017E007D007C85
:1004050000120910E4FD7F081209A87F017E007D16
:10041500007C00120910E4F50EC3E50E94117480FA
:100425009480502975F011E50CA42493F582E5F02C
:100435003402F583E582250EF582E43583F583E400
:1004450093FD60097F051209A8050E80CCAD0E7FCE
:10045500B91209A87DFF7FB21209A87D047F371262
:0904650009A8050C0203CBAF0D40
:01046E00226B
:0509BE007FC50209B332
:0B09A800908100EFF0908000EDF02245
:0B09B300908100EFF0908000E0FF2238
:0409A3000219258090
:1008C400759850758920AE19AF1AAB07AA06E4F9DA
:1008D400F8FF7EE1FDFC1207D31201718F8B8F8D1F
:0708E400D28ED2ACD2AF228C
:0E097700C2ACC2998F993099FDC299D2AC22C0
:1008EB008B0B8A0C890DAB0BAA0CA90D120158604E
:1008FB0013050DE50D7002050C14F9120158FF12CA
:05090B00097780E222E3
:0300000002063DB8
:0C063D00787FE4F6D8FD75811E0206846B
:10015800BB010689828A83E0225002E722BBFE02A5
:09016800E32289828A83E49322D8
:1007D300C2D5E830E70FB2D5E4C39BFBE49AFAE451
:1007E30099F9E498F8EC30E717B2D5120809120228
:1007F30001E4C39BFBE49AFAE499F9E498F88003D3
:1008030012020130D50DE4C39FFFE49EFEE49DFD7B
:04081300E49CFC2243
:0E017100C3E49FFFE49EFEE49DFDE49CFC229F
:10017F007401FF3395E0FEFDFC080808E6CF2FF66B
:10018F0018E6CE3EF618E6CD3DF618E6CC3CF62244
:10019F00D083D082F8E4937012740193700DA3A3EF
:1001AF0093F8740193F5828883E473740293686003
:0601BF00EFA3A3A380DF03
:10064900020728E493A3F8E493A34003F68001F298
:1006590008DFF48029E493A3F85407240CC8C333B2
:10066900C4540F4420C8834004F456800146F6DF81
:10067900E4800B010204081020408090099DE47E6B
:10068900019360BCA3FF543F30E509541FFEE49376
:10069900A360010ECF54C025E060A840B8E493A33D
:1006A900FAE493A3F8E493A3C8C582C8CAC583CA68
:1006B900F0A3C8C582C8CAC583CADFE9DEE780BE20
:0109A700004F
:1001C50075F008758200EF2FFFEE33FECD33CDCCF1
:1001D50033CCC58233C5829BED9AEC99E582984074
:1001E5000CF582EE9BFEED9AFDEC99FC0FD5F0D651
:1001F500E4CEFBE4CDFAE4CCF9A88222B800C1B97B
:100205000059BA002DEC8BF084CFCECDFCE5F0CBB8
:10021500F97818EF2FFFEE33FEED33FDEC33FCEBF1
:1002250033FB10D703994004EB99FB0FD8E5E4F9AC
:10023500FA227818EF2FFFEE33FEED33FDEC33FC99
:10024500C933C910D7059BE99A4007EC9BFCE99A8D
:10025500F90FD8E0E4C9FAE4CCFB2275F010EF2FD2
:10026500FFEE33FEED33FDCC33CCC833C810D707D2
:100275009BEC9AE899400AED9BFDEC9AFCE899F80D
:0E0285000FD5F0DAE4CDFBE4CCFAE4C8F922A0
:00000001FF
