:10031300CED2D4DA0D0A00BAC30D0A00D5E2BBB0BF
:10032300CED2C3BBB7A8BDD30D0A00CBB5BAC3B5F4
:10033300C4D2D4C0F1CFE0B4C4D80D0A003034B570
:10034300E7CAD3BBFAD2D1B9D8B1D50D0A0030353B
:10035300B7E7C9C8D2D1B4F2BFAA0D0A003036B785
:10036300E7C9C8D2D1B9D8B1D50D0A003037BFD546
:10037300B5F7D2D1B4F2BFAA0D0A003038BFD5B554
:10038300F7D2D1B9D8B1D50D0A003039D2D1C8AB23
:10039300B2BFB4F2BFAA0D0A003130D2D1C8ABB29A
:1003A300BFB9D8B1D50D0A00C7EBCBB5B3F6D2BBF5
:0903B300BCB6BFDAC1EE0D0A0070
:06096C00011C00011B004C
:10070700E4F5097592FFF591C294C295C296C29716
:100717001208BC12092B1207F0120895802C781CBE
:10072700E61460FA24F1601824DF60F224317020A7
:10073700781C760112075DEF70E4781C763180DE55
:1007470012098D781EEFF6120141E4781CF680CE6F
:06075700E4781CF680C8E6
:1008BC00B2C2120946B2C2120946B2C2120946B2FB
:1008CC00C2120946B2C2120946B2C2120946B2C2DB
:0608DC00120946B2C2221F
:10092B007580FFE4F59075A0FF75B0FF75C0FFC231
:08093B00C3D289D2A8D2AF2279
:0A09610000007F057E49DEFEDFFC8A
:01096B002269
:080907008F148E138D128C1168
:10090F00E4F515F516F517F518781174FF12002F89
:0B091F00EC4D4E4F600512096180EEA8
:01092A0022AA
:0309430012094650
:0C0946007F117ED07D1BDDFEDEFCDFFAA1
:010952002282
:03000300020831BF
:10083100C0E0C0F0C083C082C0D075D000C000C08D
:1008410001C002C003C004C005C006C0071204F401
:10085100D007D006D005D004D003D002D001D000FB
:0B086100D0D0D082D083D0F0D0E032A5
:100141008F0AE50A7016751B017BFF7A037913127A
:1001510008E2C2A7120943D2A7C2C222E51B640169
:100161006003020222F51BD2C2E50A12004D019181
:100171000101A40201BA0401D00501DA1601E41754
:1001810001EE1801F81902021A02121B0000022BDB
:10019100D2977BFF7A03791A1208E2C2A6120943A9
:1001A100D2A622C2977BFF7A03791F1208E2C2A569
:1001B100120946120946D2A522D2967BFF7A03790B
:1001C1002E1208E2C2A4120946120946D2A422C282
:1001D100967BFF7A037940804ED2957BFF7A037933
:1001E100518044C2957BFF7A037960803AD2947B37
:1001F100FF7A03796F8030C2947BFF7A03797E8026
:1002010026D297D296D295D2947BFF7A03798D80AC
:1002110016C297C296C295C2947BFF7A03799C80DD
:0B022100067BFF7A0379AB1208E22293
:10022C0068656920736569207275690000000000BB
:10023C00000000006E6920687569206368616E6754
:10024C00206765206D61000063616F206E69206D11
:10025C006100000000000000000000006E69206DCD
:10026C0061207369206C6500000000000000000034
:10027C006775616E206269206469616E20736869BC
:10028C00000000006461206B61692066656E672068
:10029C007368616E000000006775616E20626920F2
:1002AC0066656E67207368616E0000006461206B88
:1002BC006169206B6F6E67207469616F00000000CC
:1002CC006775616E206269206B6F6E67207469615F
:1002DC006F0000007175616E206275206461206B87
:1002EC0061690000000000007175616E206275206C
:1002FC006775616E20626900000000000001020455
:07030C0005161718191A1B52
:1007F000D2B57F057E007D007C00120907C2B57F5F
:10080000057E007D007C00120907D2B57F057E00C1
:100810007D007C00120907C2A17F057E007D007C5F
:1008200000120907D2A17F057E007D007C0002092D
:0108300007C0
:1003BC007F061209827D357F171209777F0A7E002E
:1003CC007D007C001209077F061209827D037F895C
:1003DC001209777F057E007D007C001209077D43A2
:1003EC007FCF1209777F057E007D007C0012090704
:1003FC007D027FCB1209777D0A7F11120977E4FD0C
:10040C007F1E1209777D3F7F191209777D487F1B6C
:10041C001209777D1F7F1D1209777F0A7E007D00F0
:10042C007C001209077D047FCD1209777F057E00C1
:10043C007D007C00120907E4FD7FB91209777D4F1E
:0C044C007FCF1209777DFF7F6F020977D8
:1006A8001203BCE4FD7FBD1209777D487F1712094C
:1006B800777F0A7E007D007C001209077D807F3CE1
:1006C8001209777D077F3E1209777DFF7F3812096F
:1006D800777D077F3A120977E4FD7F401209777D1D
:1006E800087F42120977E4FD7F441209777D087F6D
:0F06F800461209777F017E007D007C0002090712
:1004F400E4F508C2A87F2B120982781DA607E4FD43
:100504007F29120977E4FD7F02120977781DE6300E
:10051400E42D7FB2120982EF642170237FBF120998
:1005240082BF351B7FBA1209828F08E508D3940075
:10053400400DE508D394045006781C7610800478A6
:100544001C7611E4FD7F2B120977E4FD7F1C120950
:1005540077E4FD7F29120977E4FD7F02120977E42D
:10056400FD7F2B120977E4FD7FBA120977E4FD7F42
:10057400BC1209777D017F08120977E4FD7F081218
:040584000977D2A879
:010588002250
:10075D00E4F50AF50BF50A1209937F327E007D0050
:10076D007C00120907120458EF700280117F0A7E77
:10077D00007D007C00120907120589EF7010120729
:10078D00F07F327E007D007C001209078005750B1D
:0E079D00018009050AE50AC3940540BBAF0BB5
:0107AB00222B
:10086C00E4F510F50F7FB2120982BF210575100156
:10087C0080147F0A7E007D007C00120907050FE5BD
:08088C000FC3940A40DFAF1016
:010894002241
:030993000206A8B1
:10058900C2A87D557F351209777D097F1C1209772D
:100599007D207FBD1209777D017F081209777F01D0
:1005A9007E007D007C00120907E4FD7F08120977AF
:1005B9007F017E007D007C0012090712086CEF7034
:1005C90002FF227D0B7F1C1209777DFF7FB2120982
:1005D900777F017E007D007C001209077D067F3749
:1005E9001209777F017E007D007C001209077D06D4
:1005F9007F371209777F057E007D007C001209078D
:100609007D107F29120977E4FD7FBD120977D2A8F1
:030619007F01223C
:10045800750D01E4F50C12086CEF7005F50D02043A
:10046800F1E50C90030893FD7FC1120977E4FD7F45
:10047800C31209777D047F081209777F017E007D0A
:10048800007C00120907E4FD7F081209777F017ECE
:10049800007D007C00120907E4F50EE50C75F014E8
:1004A800A4242CF582E43402F583E582250EF58236
:1004B800E43583F583E493FD600E7F051209770523
:1004C8000EE50EC3941440D3AD0E7FB91209777DA3
:1004D800FF7FB21209777D047F37120977050CE593
:0B04E8000CC3940B500302045EAF0D28
:0104F30022E6
:06098D007FC51209822261
:0B097700908100EFF0908000EDF02276
:0B098200908100EFF0908000E0FF2269
:0409720002192580C1
:10089500759850758920AE19AF1AAB07AA06E4F909
:1008A500F8FF7EE1FDFC1207AC12001F8F8B8F8DC8
:0708B500D28ED2ACD2AF22BB
:0E095300C2ACC2998F993099FDC299D2AC22E4
:1008E2008B0B8A0C890DAB0BAA0CA90D12000660AA
:1008F20013050DE50D7002050C14F9120006FF1226
:05090200095380E22210
:0300000002061CD9
:0C061C00787FE4F6D8FD75811E020663AD
:10000600BB010689828A83E0225002E722BBFE02F8
:09001600E32289828A83E493222B
:1007AC00C2D5E830E70FB2D5E4C39BFBE49AFAE478
:1007BC0099F9E498F8EC30E717B2D51207E2120079
:1007CC00AFE4C39BFBE49AFAE499F9E498F880034C
:1007DC001200AF30D50DE4C39FFFE49EFEE49DFDF7
:0407EC00E49CFC226B
:0E001F00C3E49FFFE49EFEE49DFDE49CFC22F2
:10002D007401FF3395E0FEFDFC080808E6CF2FF6BE
:10003D0018E6CE3EF618E6CD3DF618E6CC3CF62297
:10004D00D083D082F8E4937012740193700DA3A342
:10005D0093F8740193F5828883E473740293686056
:06006D00EFA3A3A380DF56
:10062800020707E493A3F8E493A34003F68001F2DA
:1006380008DFF48029E493A3F85407240CC8C333D3
:10064800C4540F4420C8834004F456800146F6DFA2
:10065800E4800B010204081020408090096CE47EBD
:10066800019360BCA3FF543F30E509541FFEE49397
:10067800A360010ECF54C025E060A840B8E493A35E
:10068800FAE493A3F8E493A3C8C582C8CAC583CA89
:10069800F0A3C8C582C8CAC583CADFE9DEE780BE41
:010976000080
:1000730075F008758200EF2FFFEE33FECD33CDCC44
:1000830033CCC58233C5829BED9AEC99E5829840C7
:100093000CF582EE9BFEED9AFDEC99FC0FD5F0D6A4
:1000A300E4CEFBE4CDFAE4CCF9A88222B800C1B9CE
:1000B3000059BA002DEC8BF084CFCECDFCE5F0CB0C
:1000C300F97818EF2FFFEE33FEED33FDEC33FCEB45
:1000D30033FB10D703994004EB99FB0FD8E5E4F900
:1000E300FA227818EF2FFFEE33FEED33FDEC33FCED
:1000F300C933C910D7059BE99A4007EC9BFCE99AE1
:10010300F90FD8E0E4C9FAE4CCFB2275F010EF2F25
:10011300FFEE33FEED33FDCC33CCC833C810D70725
:100123009BEC9AE899400AED9BFDEC9AFCE899F860
:0E0133000FD5F0DAE4CDFBE4CCFAE4C8F922F3
:00000001FF
